{
  "contractName": "HashStorage",
  "abi": [
    {
      "inputs": [
        {
          "internalType": "string",
          "name": "_name",
          "type": "string"
        },
        {
          "internalType": "string",
          "name": "_imageUrl",
          "type": "string"
        },
        {
          "internalType": "string",
          "name": "_symbol",
          "type": "string"
        },
        {
          "internalType": "address",
          "name": "_owner",
          "type": "address"
        }
      ],
      "name": "storeObject",
      "outputs": [],
      "stateMutability": "nonpayable",
      "type": "function"
    },
    {
      "inputs": [],
      "name": "getAllObjects",
      "outputs": [
        {
          "components": [
            {
              "internalType": "string",
              "name": "name",
              "type": "string"
            },
            {
              "internalType": "string",
              "name": "imageUrl",
              "type": "string"
            },
            {
              "internalType": "string",
              "name": "symbol",
              "type": "string"
            },
            {
              "internalType": "address",
              "name": "owner",
              "type": "address"
            }
          ],
          "internalType": "struct HashStorage.MyObject[]",
          "name": "",
          "type": "tuple[]"
        }
      ],
      "stateMutability": "view",
      "type": "function"
    }
  ],
  "bytecode": "0x608060405234801561001057600080fd5b50610987806100206000396000f3fe608060405234801561001057600080fd5b50600436106100365760003560e01c8063cfe50a0c1461003b578063df0f85a114610059575b600080fd5b610043610075565b604051610050919061069e565b60405180910390f35b610073600480360381019061006e9190610835565b6102e0565b005b60606000805480602002602001604051908101604052809291908181526020016000905b828210156102d757838290600052602060002090600402016040518060800160405290816000820180546100cc9061091f565b80601f01602080910402602001604051908101604052809291908181526020018280546100f89061091f565b80156101455780601f1061011a57610100808354040283529160200191610145565b820191906000526020600020905b81548152906001019060200180831161012857829003601f168201915b5050505050815260200160018201805461015e9061091f565b80601f016020809104026020016040519081016040528092919081815260200182805461018a9061091f565b80156101d75780601f106101ac576101008083540402835291602001916101d7565b820191906000526020600020905b8154815290600101906020018083116101ba57829003601f168201915b505050505081526020016002820180546101f09061091f565b80601f016020809104026020016040519081016040528092919081815260200182805461021c9061091f565b80156102695780601f1061023e57610100808354040283529160200191610269565b820191906000526020600020905b81548152906001019060200180831161024c57829003601f168201915b505050505081526020016003820160009054906101000a900473ffffffffffffffffffffffffffffffffffffffff1673ffffffffffffffffffffffffffffffffffffffff1673ffffffffffffffffffffffffffffffffffffffff168152505081526020019060010190610099565b50505050905090565b600060405180608001604052808681526020018581526020018481526020018373ffffffffffffffffffffffffffffffffffffffff168152509050600081908060018154018082558091505060019003906000526020600020906004020160009091909190915060008201518160000190805190602001906103639291906103ee565b5060208201518160010190805190602001906103809291906103ee565b50604082015181600201908051906020019061039d9291906103ee565b5060608201518160030160006101000a81548173ffffffffffffffffffffffffffffffffffffffff021916908373ffffffffffffffffffffffffffffffffffffffff16021790555050505050505050565b8280546103fa9061091f565b90600052602060002090601f01602090048101928261041c5760008555610463565b82601f1061043557805160ff1916838001178555610463565b82800160010185558215610463579182015b82811115610462578251825591602001919060010190610447565b5b5090506104709190610474565b5090565b5b8082111561048d576000816000905550600101610475565b5090565b600081519050919050565b600082825260208201905092915050565b6000819050602082019050919050565b600081519050919050565b600082825260208201905092915050565b60005b838110156104f75780820151818401526020810190506104dc565b83811115610506576000848401525b50505050565b6000601f19601f8301169050919050565b6000610528826104bd565b61053281856104c8565b93506105428185602086016104d9565b61054b8161050c565b840191505092915050565b600073ffffffffffffffffffffffffffffffffffffffff82169050919050565b600061058182610556565b9050919050565b61059181610576565b82525050565b600060808301600083015184820360008601526105b4828261051d565b915050602083015184820360208601526105ce828261051d565b915050604083015184820360408601526105e8828261051d565b91505060608301516105fd6060860182610588565b508091505092915050565b60006106148383610597565b905092915050565b6000602082019050919050565b600061063482610491565b61063e818561049c565b935083602082028501610650856104ad565b8060005b8581101561068c578484038952815161066d8582610608565b94506106788361061c565b925060208a01995050600181019050610654565b50829750879550505050505092915050565b600060208201905081810360008301526106b88184610629565b905092915050565b6000604051905090565b600080fd5b600080fd5b600080fd5b600080fd5b7f4e487b7100000000000000000000000000000000000000000000000000000000600052604160045260246000fd5b6107168261050c565b810181811067ffffffffffffffff82111715610735576107346106de565b5b80604052505050565b60006107486106c0565b9050610754828261070d565b919050565b600067ffffffffffffffff821115610774576107736106de565b5b61077d8261050c565b9050602081019050919050565b82818337600083830152505050565b60006107ac6107a784610759565b61073e565b9050828152602081018484840111156107c8576107c76106d9565b5b6107d384828561078a565b509392505050565b600082601f8301126107f0576107ef6106d4565b5b8135610800848260208601610799565b91505092915050565b61081281610576565b811461081d57600080fd5b50565b60008135905061082f81610809565b92915050565b6000806000806080858703121561084f5761084e6106ca565b5b600085013567ffffffffffffffff81111561086d5761086c6106cf565b5b610879878288016107db565b945050602085013567ffffffffffffffff81111561089a576108996106cf565b5b6108a6878288016107db565b935050604085013567ffffffffffffffff8111156108c7576108c66106cf565b5b6108d3878288016107db565b92505060606108e487828801610820565b91505092959194509250565b7f4e487b7100000000000000000000000000000000000000000000000000000000600052602260045260246000fd5b6000600282049050600182168061093757607f821691505b6020821081141561094b5761094a6108f0565b5b5091905056fea2646970667358221220a83cc23176748689e8c4921fff273bcbd262aad07cc061bb27f64072b92e71ac64736f6c634300080b0033",
  "immutableReferences": {},
  "source": "// SPDX-License-Identifier: MIT\r\npragma solidity >=0.4.22 <0.9.0;\r\n\r\ncontract HashStorage {\r\n    // Struct to represent your object\r\n    struct MyObject {\r\n        string name;\r\n        string imageUrl;\r\n        string symbol;\r\n        address owner;\r\n    }\r\n\r\n    // Array to store objects\r\n    MyObject[] private objects;\r\n\r\n    // Function to store an object in the array\r\n    function storeObject(\r\n        string memory _name,\r\n        string memory _imageUrl,\r\n        string memory _symbol,\r\n        address _owner\r\n    ) external {\r\n        MyObject memory newObject = MyObject(_name, _imageUrl, _symbol, _owner);\r\n        objects.push(newObject);\r\n    }\r\n\r\n    // Function to return all objects stored in the array\r\n    function getAllObjects() external view returns (MyObject[] memory) {\r\n        return objects;\r\n    }\r\n}\r\n",
  "sourcePath": "D:\\Puffles.io-main\\Puffles.io-main\\contracts\\MyContract.sol",
  "compiler": {
    "name": "solc",
    "version": "0.8.11+commit.d7f03943.Emscripten.clang"
  },
  "schemaVersion": "3.4.4",
  "updatedAt": "2024-05-14T07:28:26.098Z",
  "devdoc": {
    "kind": "dev",
    "methods": {},
    "version": 1
  },
  "userdoc": {
    "kind": "user",
    "methods": {},
    "version": 1
  }
}